:0C06D20054656D7065726174757265008E
:070707000118000219001E99
:1002A600750C13750D881205DD1206927BFF7A0612
:1002B60079D27D017F01120600C2941204B68E081F
:1002C6008F091204347B007A00791E7D017F0212A9
:1002D6000600751202AB1AAA197D0D7F0212052AB5
:1002E6001204B68E088F09751202AB1AAA197D0D73
:1002F6007F0212052A7B437D107F021206FDE50967
:10030600650B7004E508650A60101204347B007AF8
:1003160000791E7D017F02120600AE19AF1A7C001D
:100326007D0A120231D3E5099FE5089E4020B2946A
:10033600E50D150DAE0C7002150C4E70F3750C1311
:10034600750D887B577D107F011206FD800B7B4E55
:100356007D107F011206FDC294E5186083E4F5184E
:10036600E517B430087B007A00791E800EE517B4D5
:10037600330E1206237B007A00791B12058F801C30
:10038600E517B4310A051AE51A70110519800DE54D
:1003960017B43208E51A151A7002151975172002D6
:0203A60002E66D
:1005DD0075985043878053890F438920758BF37528
:1005ED008DF3C2ABD28ED2AFD2ACD288D28AD2A882
:0305FD00D2AA225D
:030023000206A62C
:1006A600309808C298859917751801309902C29931
:0106B6003211
:03000300020006F2
:0D000600C0E0051AE51A70020519D0E032BD
:03001300020016D2
:0D001600C0E0E51A151A70021519D0E0328D
:0C06C600C2AC8F993099FDC299D2AC22D1
:10058F008B0E8A0F8910AB0EAA0FA9101201EBFF69
:10059F001206C6AB0E0510E510AA0F7002050F1458
:0705AF00F91201EB70E022DC
:0604340085080A85090B92
:10043A00E52570047B2B80027B2DAE26AF277C033B
:10044A007DE8120243EF2430F51FAE26AF277C0366
:10045A007DE81202437E007F64CFCDCFCECCCE1290
:10046A000243EF2430F520AE26AF277C007D6412CC
:10047A0002437E007F0ACFCDCFCECCCE120243EF0D
:10048A002430F52175222EAE26AF277C007D0A1274
:10049A000243ED2430F523E51FB4300F751E208B7F
:0B04AA001FE520B43005751F208B20DB
:0104B5002224
:10062300AE19AF1A7C007D0A120243EF2430F51B8A
:10063300AE19AF1A7C007D0A120243ED2430F51C7B
:010643002294
:0B06DE00EF1FAC0670011E4C70F622EE
:10056700E4FDD2937F08FE1206DEC2937F507E0021
:100577001206DED2937F0E7E001206DEA293E433CC
:08058700FD7F147E000206DE78
:10064400E4FB7D08C293EBC313FBD29330930343C3
:0D06540003807F047E001206DEDDE9AF03A7
:010661002276
:02066200AD07E2
:100664007B08C293ED1392937F057E001206DED2BF
:0706740093EDC313FDDBEB66
:01067B00225C
:1004B600E4FAFF1205677FCC1206627F44120662D9
:1004C6001205677FCC1206627FBE120662120644D0
:1004D600AA071206447526008F27E527752700F51B
:1004E60026AF02EF4227C3E52794FFE526940F5077
:1004F60005E4F5258014E527F4FFE526F4FEEF2450
:1005060001F527E43EF526752501AC26AD27E41254
:100516000131E4FBFA7920783F12002612016A8E37
:03052600268F27F6
:0105290022AF
:0606B700C2A58F80D2A74E
:0806BD007F027E1BDEFEDFFC64
:0106C5002212
:0A06E900C2A61206B7C2A70206BDA2
:0A06F300D2A61206B7C2A70206BD88
:10067C00AE07BE0104ED148006BE0209ED243F4412
:06068C0080FF1206E922C6
:100692007F381206E97F0C1206E97F061206E97F0F
:0406A200010206E962
:0A06FD00AC0312067CAF040206F302
:060600008B0E8A0F891029
:1006060012067CE4FDAB0EAA0FA9108D827583003D
:0C061600120204FF60061206F30D80E9DA
:0106220022B5
:0805B6008E138F148C158D16B5
:1005BE007F017E00E4FBEBC39516E5156480F874AD
:0E05CE008098500AAC13AD141202310B80E875
:0105DC0022FC
:04052A008A108B1197
:10052E0012067CAA12EAD39400402DEA24FFFDE4C1
:10053E0034FFFC7F0A7E001205B6AC10AD11CFCD94
:10054E00CFCECCCE1202437C007D0A120243ED24A4
:08055E0030FF1206F31A80CDF4
:010566002272
:10002600EC4D6011E8497017ED33EC3304600DE4D4
:10003600FCFFFEFD22E933E8330470F80201D61214
:1000460001A158046009E4CC248150062850090215
:1000560001E02840030201DDC0E0EB4A7044B980AC
:1000660006D0E0FB0201CCEF4E701CBD8008EBFF12
:10007600EAFEE9FD80EBE98DF0A4FEE5F002010F52
:10008600E9CDF9EAFEEBFFEF89F0A4FCE5F0CE89B5
:10009600F0A42EFFE435F0CD89F0A42DFEE435F072
:1000A6008067EF4E7005BD80D780C3EF8BF0A4ACA0
:1000B600F0EE8BF0A42CFCE435F0F8EF8AF0A42CDB
:1000C600E5F038FCE433CB8DF0A42CFCE5F03BF8EE
:1000D600EE8AF0A42CFCE5F038F8E433CF89F0A4DE
:1000E6002CFCE5F038CF3400CE89F0A42FFFE5F0E4
:1000F6003EFEE433C98DF0A42EFEE5F039CD8AF03C
:10010600A42FFFE5F03EFEE43DFD33D0E0FB5007B3
:100116000BBB000F0201E0EC2CFCEF33FFEE33FECD
:06012600ED33FD0201B8FB
:10012C0075F020800E75F010800575F0087D007E4E
:10013C00007F003392D530D503120298EC33401077
:10014C00EF33FFEE33FEED33FDEC33FCD5F0ED2257
:0E015C00E5F0247EA2D513CC92E7CDCEFF2293
:10016A00EDD2E7CD33EC3392D524814006E4FFFE8D
:10017A00FDFC22FCE4CFCECDCC24E0501174FF80EC
:10018A00EDC3CC13CCCD13CDCE13CECF13CF047089
:07019A00F030D5DE020298EF
:1001A100E9D2E7C933E833F892D5EDD2E7CD33ECA4
:0701B10033FC5002B2D5221D
:1001B800EC30E7100FBF000C0EBE00080DBD0004A8
:1001C8000BEB6014A2D5EB13FCED92E7FD2274FF54
:1001D800FCFDFEFF22E480F8A2D574FF13FC7D80AD
:0301E800E480EFC1
:030000000203A850
:0C03A800787FE4F6D8FD7581270203EF92
:1001EB00BB010689828A83E0225002E722BBFE0212
:0901FB00E32289828A83E4932245
:10020400BB010CE58229F582E5833AF583E02250AF
:1002140006E92582F8E622BBFE06E92582F8E222F9
:0D022400E58229F582E5833AF583E4932213
:10023100EF8DF0A4A8F0CF8CF0A428CE8DF0A42EE1
:02024100FE229B
:10024300BC000BBE0029EF8DF084FFADF022E4CC9F
:10025300F875F008EF2FFFEE33FEEC33FCEE9DEC68
:10026300984005FCEE9DFE0FD5F0E9E4CEFD22EDAE
:10027300F8F5F0EE8420D21CFEADF075F008EF2FF8
:10028300FFED33FD4007985006D5F0F222C398FDE9
:050293000FD5F0EA2286
:0E029800C3E49FFFE49EFEE49DFDE49CFC2277
:1003B4000202A6E493A3F8E493A34003F68001F2B7
:1003C40008DFF48029E493A3F85407240CC8C3334A
:1003D400C4540F4420C8834004F456800146F6DF19
:1003E400E4800B0102040810204080900707E47E9B
:1003F400019360BCA3FF543F30E509541FFEE4930E
:10040400A360010ECF54C025E060A840B8E493A3D4
:10041400FAE493A3F8E493A3C8C582C8CAC583CAFF
:10042400F0A3C8C582C8CAC583CADFE9DEE780BEB7
:01070E0000EA
:00000001FF
