:100016000106011501260137014A015D01710188BA
:10002600019F01B801D201EE0002040507090B0188
:1000360002040810204017021703180319021503BB
:1000460016031703170317031803190216031703DA
:1000560018021803170315021803170318021003D2
:1000660015031602150316031702170318031902C0
:100076001A031B031F031F03170318031902160392
:1000860017031803170318031F031F02160317038A
:10009600180317031803200320021F031B031F6600
:1000A6002003210320031F031B031F661F031B03DB
:1000B6001903190315031A661A0319031503150301
:1000C6001703166617041804180319031F031B03E6
:1000D6001F662003210320031F031B031F661F0344
:1000E6001B031903190315031A661A0319031903C7
:1000F6001F031B031F001A031A031A031B031B0308
:100106001A03190319021703151715031603170304
:1001160018031704180E18031704180E1866170389
:10012600180317031803200320021F031B031F666F
:100136002003210320031F031B031F661F041B0E3E
:100146001B031903190315031A661A03190315036A
:1001560015031703166617041804180319031F035B
:100166001B031F662003210320031F031B031F66B7
:100176001F031B031903190315031A661A03190330
:1001860019031F031B031F00180218031A03190D76
:1001960015031502186616021702150000000F0156
:1001A6001502160217661803170215021601150224
:1001B600100215000F011502160217021703180385
:1001C60019021502186617031902160317031600FB
:1001D600170119021B021B701A031A0119021903CF
:1001E6001A031B021A0D19031700186618031902C1
:1001F6001A02190C180D1703160111021103100328
:100206000F0C100215001F011A01186619031A01B6
:100216001B021B031B031B0C1A0D190317001F01DE
:100226001A01186619031A011002100310031A0C9A
:10023600180D170316000F01150216021770180382
:100246001702150315031666160316021603150381
:10025600100210011101116610030F0C1A02190287
:100266001603160318661803180217031603190057
:1002760000001703160317011603170316031501CB
:10028600100315031602160D1703160315031003A4
:10029600100E15040F011703160317011603170393
:1002A60016031501100315031602160D1703160380
:1002B600150310031503160117031603170116037A
:1002C600170316031501100315031602160D17035F
:1002D600160315031003100E15040F011703190357
:1002E600190119031A031903170116031603160237
:1002F600160D1703160315031003100D1500190329
:1003060019031A031F031B031B031A03170D1603F6
:100316001603160D17011703170319031A021A02FB
:100326001003170D160316011703190319031703F4
:1003360019021F021B031A031A0E1B0417021A03C3
:100346001A031A0E1B041A03190317031603170DB3
:10035600160317031901190319031A031F031B03B5
:100366001B031A03170D16031603160317011703AB
:10037600170319031A021A021003170D16031601A2
:10038600170319031903170319031F021B031A0383
:100396001A0E1B0417021A031A031A0E1B04171649
:1003A6001A031A031A0E1B041A031903170316035A
:0803B6000F0210031500000006
:100B8D0001480002460001023D000102440002023C
:060B9D003B000301434F81
:100B7100C2947540FF7542FF85408D85428B438944
:0C0B810011D2A9C2ABC28CC28ED2AF222E
:03000B00020BFDE8
:090BFD00B294853F8C85418A32D7
:0C03BE00F50C750D03750E01750F68FD40
:0803CA008B088A09890A8D0BDA
:1003D200E4F528E528250BFFD3940B401A74F42F7B
:1003E20025E02416F582E43400F58374019325E0B8
:1003F200FFE49333FE8013EF25E02416F582E43404
:1004020000F583E493FE740193FFE52825E02410B0
:10041200F8A60608A607E50D6401450C7018E52844
:1004220025E02410F8C000E6FE08E67802CEC313E9
:10043200CE13D8F9801EE50D6403450C701CE52827
:1004420025E02410F8C000E6FE08E67802C333CEA9
:1004520033CED8F9D000A60608F60528E528640CA4
:1004620060030203D5E4F533F534AB08AA09A90AFF
:100472008534828533831206A9600D74022534F512
:1004820034E43533F53380E2E4F529F52AAB08AAE2
:1004920009A90A852A828529831206A9F535E52A42
:1004A2002401FFE435298F82F5831206A9F536ACC3
:1004B2000EAD0F7E2E7FE01206E88E2B8F2CE52CE0
:1004C2007802CEC313CE13D8F9F5328E317802C337
:1004D20033CE33CED8F9FF7C007D051206E8C3E5A2
:1004E200329FF532E5319EF531C28CD28EC3E52AB8
:1004F2009534E529953340030206A620960BE52B99
:10050200C313F52BE52C13F52C20970BE52C25E0D6
:10051200F52CE52B33F52BE53575F00A8485F0379C
:10052200E53575F00A8475F00A84ADF0E53575F0AD
:100532006484FFE53790002D932F25E02410F8E620
:10054200FE08E6FFE5376047BD010BEF7802CEC338
:1005520013CE13D8F9FFBD030BEF7802C333CE33AA
:10056200CED8F9FFAB07AA06E4F9F87F507EC3FDA7
:10057200FC12097CE47B0AFAF9F8120773C3E49FC0
:10058200FFE49EF53F8F41F58CE541240CF58AE5A9
:100592003675F00A84E5F090003593F538E5367546
:1005A200F00A8475F00A8485F039E53675F06484C2
:1005B200F53AE538FD7C00AE2BAF2C1206E8AB070E
:1005C200AA06E53AB4010BEAC313FEEB132BFBEECA
:1005D2003AFAE5396401603DE539702EE538D39485
:1005E20004500DC3EB9532F52EEA9531F52D802995
:1005F200EBAE027802C333CE33CED8F9FF7C007D56
:10060200051206E88E2D8F2E800FEAC313F52DEB0F
:1006120013F52E80048A2D8B2EE5377004F52DF507
:100622002EC3EB952EF530EA952DF52FE537601B9D
:10063200D28C852E28E528D39400400F308FFD857B
:10064200408D85428BC28F152880EAE530452F60A8
:1006520024C28CC294853028E528D39400401630F9
:100662008FFD85408D85428BC28FE5486003C29421
:1006720022152880E37402252AF52AE43529F52972
:10068200AB08AA09A90A852A82F5831206A9F535BB
:10069200E52A2401FFE435298F82F5831206A9F5A4
:0606A200360204EFC294D1
:0106A800222F
:100BBA00D288D2AFD2A8D28AD2AFD2AA75B8052229
:100B1600E4FDFCC3ED9FEC9E5015E4FBFA0BBB0015
:0F0B2600010AEB64784A70F50DBD00010C80E404
:010B3500229D
:10091C00120B71120BBAE4F548AE46AF47FC7D03DF
:10092C0012073DED4C700B120BBA7BFF7A00793C31
:10093C00801AAE46AF477C007D0312073DED640183
:10094C004C700E120BBA7BFF7A0179A41203BE8095
:10095C00C5AE46AF477C007D0312073DED64024CEB
:10096C0070B4120BBA7BFF7A0279781203BE80A6A0
:03000300020A9E50
:100A9E00C0E0C0D075D000C002C003C004C005C005
:100AAE0006C007B2A97F0A7E00120B16C294D007A9
:0F0ABE00D006D005D004D003D002D0D0D0E03283
:03001300020BCA13
:100BCA00C0E00547E54770020546754801D0E032A6
:060BDA00C2A58F80D2A726
:080BE0007F027EEFDEFEDFFC68
:010BE80022EA
:0A0BE900C2A6120BDAC2A7020BE04D
:100B3600CFCDCFCECCCE1206E87C007D0A1206E8D9
:040B4600ED2430FF6B
:0A0B4A00D2A6120BDAC2A7020BE0DC
:100BA400AE07BE0104ED148006BE0209ED243F44E5
:060BB40080FF120BE92294
:100ACD007F38120BE97F0C120BE97F06120BE97FC1
:100ADD0001120BE9C290758902758CB0758A9CD292
:060AED00A9D2AFD28C2259
:0A0BF300AC03120BA4AF04020B4A7E
:060AF3008B638A64896533
:100AF900120BA4E4FDAB63AA64A9658D827583001A
:0C0B09001206A9FF6006120B4A0D80E9DD
:010B150022BD
:0C0A6B007F0AEA24FFFDE434FFFC7E005B
:080A77008E5F8F608C618D62BF
:100A7F007F017E00E4FBEBC39562E5616480F8744F
:0E0A8F008098500AAC5FAD601206D60B80E86E
:010A9D002236
:040B54008A528B53E3
:100B5800120BA4AA54EAD39400400D120A6BAC52AB
:080B6800AD53120B361A80EDAB
:010B70002262
:1009C000120BA4C3EA64809480400B7F2B120B4A65
:1009D0008A4E8B4F800E7F2D120B4AC3E49BF54F3E
:1009E000E49AF54EAA4DEAD39400400D120A6BAC7E
:0909F0004EAD4F120B361A80EDDA
:0109F90022DB
:0409FA008A578B5835
:1009FE00120BA4AA59EAD3940040297F10120A6D53
:100A0E00AC57AD58CFCDCFCECCCE1206E8EF540FAB
:100A1E00FEC3940AEE5004243080022437FF120BDA
:040A2E004A1A80D10F
:010A320022A1
:040A33008A5C8B5DF1
:100A3700120BA4AA5EEAD394004028EA24FFFDE43F
:100A470034FFFC7F027E00120A77AC5CAD5DCFCD30
:100A5700CFCECCCE1206E8EF54012430FF120B4A5A
:030A67001A80D220
:010A6A002269
:0300000002089063
:0C089000787FE4F6D8FD7581650208D77A
:1006A900BB010CE58229F582E5833AF583E0225006
:1006B90006E92582F8E622BBFE06E92582F8E22250
:0D06C900E58229F582E5833AF583E493226A
:1006D600EF8DF0A4A8F0CF8CF0A428CE8DF0A42E38
:0206E600FE22F2
:1006E800BC000BBE0029EF8DF084FFADF022E4CCF6
:1006F800F875F008EF2FFFEE33FEEC33FCEE9DECBF
:10070800984005FCEE9DFE0FD5F0E9E4CEFD22ED04
:10071800F8F5F0EE8420D21CFEADF075F008EF2F4E
:10072800FFED33FD4007985006D5F0F222C398FD3F
:050738000FD5F0EA22DC
:10073D00C2D5EC30E709B2D5E4C39DFDE49CFCEED7
:10074D0030E715B2D5E4C39FFFE49EFE1206E8C361
:10075D00E49DFDE49CFC80031206E830D507C3E45C
:06076D009FFFE49EFE2246
:10077300E88FF0A4CC8BF0A42CFCE98EF0A42CFC25
:100783008AF0EDA42CFCEA8EF0A4CDA8F08BF0A4A3
:100793002DCC3825F0FDE98FF0A42CCD35F0FCEB02
:1007A3008EF0A4FEA9F0EB8FF0A4CFC5F02ECD39C7
:0F07B300FEE43CFCEAA42DCE35F0FDE43CFC2234
:10097C00C2D5E830E70FB2D5E4C39BFBE49AFAE4A6
:10098C0099F9E498F8EC30E717B2D51209B21207CE
:10099C00FEE4C39BFBE49AFAE499F9E498F880032B
:1009AC001207FE30D50DE4C39FFFE49EFEE49DFDCF
:0409BC00E49CFC2299
:10089C0002091CE493A3F8E493A34003F68001F24D
:1008AC0008DFF48029E493A3F85407240CC8C3335D
:1008BC00C4540F4420C8834004F456800146F6DF2C
:1008CC00E4800B0102040810204080900B8DE47E24
:1008DC00019360BCA3FF543F30E509541FFEE49321
:1008EC00A360010ECF54C025E060A840B8E493A3E8
:1008FC00FAE493A3F8E493A3C8C582C8CAC583CA13
:10090C00F0A3C8C582C8CAC583CADFE9DEE780BECA
:010BA3000051
:1007C20075F008758200EF2FFFEE33FECD33CDCCEE
:1007D20033CCC58233C5829BED9AEC99E582984071
:1007E2000CF582EE9BFEED9AFDEC99FC0FD5F0D64E
:1007F200E4CEFBE4CDFAE4CCF9A88222B800C1B978
:100802000059BA002DEC8BF084CFCECDFCE5F0CBB5
:10081200F97818EF2FFFEE33FEED33FDEC33FCEBEE
:1008220033FB10D703994004EB99FB0FD8E5E4F9A9
:10083200FA227818EF2FFFEE33FEED33FDEC33FC96
:10084200C933C910D7059BE99A4007EC9BFCE99A8A
:10085200F90FD8E0E4C9FAE4CCFB2275F010EF2FCF
:10086200FFEE33FEED33FDCC33CCC833C810D707CF
:100872009BEC9AE899400AED9BFDEC9AFCE899F80A
:0E0882000FD5F0DAE4CDFBE4CCFAE4C8F9229D
:00000001FF
